{
  "contractName": "ProjectListing",
  "abi": [
    {
      "inputs": [
        {
          "internalType": "uint256",
          "name": "_requiredVotes",
          "type": "uint256"
        }
      ],
      "stateMutability": "nonpayable",
      "type": "constructor"
    },
    {
      "anonymous": false,
      "inputs": [
        {
          "indexed": true,
          "internalType": "address",
          "name": "voter",
          "type": "address"
        },
        {
          "indexed": true,
          "internalType": "uint256",
          "name": "projectId",
          "type": "uint256"
        },
        {
          "indexed": false,
          "internalType": "uint256",
          "name": "amount",
          "type": "uint256"
        }
      ],
      "name": "Voted",
      "type": "event"
    },
    {
      "inputs": [],
      "name": "nextProjectId",
      "outputs": [
        {
          "internalType": "uint256",
          "name": "",
          "type": "uint256"
        }
      ],
      "stateMutability": "view",
      "type": "function",
      "constant": true
    },
    {
      "inputs": [],
      "name": "owner",
      "outputs": [
        {
          "internalType": "address",
          "name": "",
          "type": "address"
        }
      ],
      "stateMutability": "view",
      "type": "function",
      "constant": true
    },
    {
      "inputs": [
        {
          "internalType": "uint256",
          "name": "",
          "type": "uint256"
        }
      ],
      "name": "projects",
      "outputs": [
        {
          "internalType": "uint256",
          "name": "id",
          "type": "uint256"
        },
        {
          "internalType": "string",
          "name": "name",
          "type": "string"
        },
        {
          "internalType": "string",
          "name": "description",
          "type": "string"
        },
        {
          "internalType": "uint256",
          "name": "totalTokensSold",
          "type": "uint256"
        },
        {
          "internalType": "uint256",
          "name": "votes",
          "type": "uint256"
        },
        {
          "internalType": "bool",
          "name": "isActive",
          "type": "bool"
        },
        {
          "internalType": "uint256",
          "name": "deadline",
          "type": "uint256"
        }
      ],
      "stateMutability": "view",
      "type": "function",
      "constant": true
    },
    {
      "inputs": [],
      "name": "requiredVotes",
      "outputs": [
        {
          "internalType": "uint256",
          "name": "",
          "type": "uint256"
        }
      ],
      "stateMutability": "view",
      "type": "function",
      "constant": true
    },
    {
      "inputs": [
        {
          "internalType": "string",
          "name": "_name",
          "type": "string"
        },
        {
          "internalType": "string",
          "name": "_description",
          "type": "string"
        },
        {
          "internalType": "uint256",
          "name": "_deadline",
          "type": "uint256"
        }
      ],
      "name": "addProject",
      "outputs": [],
      "stateMutability": "nonpayable",
      "type": "function"
    },
    {
      "inputs": [
        {
          "internalType": "uint256",
          "name": "_projectId",
          "type": "uint256"
        },
        {
          "internalType": "uint256",
          "name": "_amount",
          "type": "uint256"
        }
      ],
      "name": "vote",
      "outputs": [],
      "stateMutability": "nonpayable",
      "type": "function"
    },
    {
      "inputs": [],
      "name": "getProjectsSortedByVotes",
      "outputs": [
        {
          "components": [
            {
              "internalType": "uint256",
              "name": "id",
              "type": "uint256"
            },
            {
              "internalType": "string",
              "name": "name",
              "type": "string"
            },
            {
              "internalType": "string",
              "name": "description",
              "type": "string"
            },
            {
              "internalType": "uint256",
              "name": "totalTokensSold",
              "type": "uint256"
            },
            {
              "internalType": "uint256",
              "name": "votes",
              "type": "uint256"
            },
            {
              "internalType": "bool",
              "name": "isActive",
              "type": "bool"
            },
            {
              "internalType": "uint256",
              "name": "deadline",
              "type": "uint256"
            }
          ],
          "internalType": "struct ProjectListing.Project[]",
          "name": "",
          "type": "tuple[]"
        }
      ],
      "stateMutability": "view",
      "type": "function",
      "constant": true
    },
    {
      "inputs": [
        {
          "internalType": "uint256",
          "name": "projectId",
          "type": "uint256"
        }
      ],
      "name": "refund",
      "outputs": [],
      "stateMutability": "nonpayable",
      "type": "function"
    }
  ],
  "bytecode": "0x60806040523480156200001157600080fd5b50604051620018603803806200186083398181016040528101906200003791906200009d565b33600260006101000a81548173ffffffffffffffffffffffffffffffffffffffff021916908373ffffffffffffffffffffffffffffffffffffffff1602179055508060038190555050620000ed565b6000815190506200009781620000d3565b92915050565b600060208284031215620000b057600080fd5b6000620000c08482850162000086565b91505092915050565b6000819050919050565b620000de81620000c9565b8114620000ea57600080fd5b50565b61176380620000fd6000396000f3fe608060405234801561001057600080fd5b50600436106100885760003560e01c80638da5cb5b1161005b5780638da5cb5b14610119578063b384abef14610137578063bd31a4d814610153578063e935b7b11461017157610088565b8063011945761461008d578063107046bd146100ab578063278ecde1146100e15780635fd4f758146100fd575b600080fd5b61009561018f565b6040516100a2919061129c565b60405180910390f35b6100c560048036038101906100c09190610de7565b6105f3565b6040516100d897969594939291906113d9565b60405180910390f35b6100fb60048036038101906100f69190610de7565b610752565b005b61011760048036038101906101129190610d68565b61086e565b005b610121610a30565b60405161012e9190611281565b60405180910390f35b610151600480360381019061014c9190610e10565b610a56565b005b61015b610bfd565b60405161016891906113be565b60405180910390f35b610179610c03565b60405161018691906113be565b60405180910390f35b60606000600154905060008167ffffffffffffffff8111156101da577f4e487b7100000000000000000000000000000000000000000000000000000000600052604160045260246000fd5b60405190808252806020026020018201604052801561021357816020015b610200610c09565b8152602001906001900390816101f85790505b50905060005b828110156103fc576000808281526020019081526020016000206040518060e001604052908160008201548152602001600182018054610258906115fd565b80601f0160208091040260200160405190810160405280929190818152602001828054610284906115fd565b80156102d15780601f106102a6576101008083540402835291602001916102d1565b820191906000526020600020905b8154815290600101906020018083116102b457829003601f168201915b505050505081526020016002820180546102ea906115fd565b80601f0160208091040260200160405190810160405280929190818152602001828054610316906115fd565b80156103635780601f1061033857610100808354040283529160200191610363565b820191906000526020600020905b81548152906001019060200180831161034657829003601f168201915b5050505050815260200160038201548152602001600482015481526020016005820160009054906101000a900460ff161515151581526020016006820154815250508282815181106103de577f4e487b7100000000000000000000000000000000000000000000000000000000600052603260045260246000fd5b602002602001018190525080806103f49061162f565b915050610219565b5060005b828110156105ea576000600182610417919061151d565b90505b838110156105d65782818151811061045b577f4e487b7100000000000000000000000000000000000000000000000000000000600052603260045260246000fd5b6020026020010151608001518383815181106104a0577f4e487b7100000000000000000000000000000000000000000000000000000000600052603260045260246000fd5b60200260200101516080015110156105c35760008383815181106104ed577f4e487b7100000000000000000000000000000000000000000000000000000000600052603260045260246000fd5b60200260200101519050838281518110610530577f4e487b7100000000000000000000000000000000000000000000000000000000600052603260045260246000fd5b6020026020010151848481518110610571577f4e487b7100000000000000000000000000000000000000000000000000000000600052603260045260246000fd5b6020026020010181905250808483815181106105b6577f4e487b7100000000000000000000000000000000000000000000000000000000600052603260045260246000fd5b6020026020010181905250505b80806105ce9061162f565b91505061041a565b5080806105e29061162f565b915050610400565b50809250505090565b600060205280600052604060002060009150905080600001549080600101805461061c906115fd565b80601f0160208091040260200160405190810160405280929190818152602001828054610648906115fd565b80156106955780601f1061066a57610100808354040283529160200191610695565b820191906000526020600020905b81548152906001019060200180831161067857829003601f168201915b5050505050908060020180546106aa906115fd565b80601f01602080910402602001604051908101604052809291908181526020018280546106d6906115fd565b80156107235780601f106106f857610100808354040283529160200191610723565b820191906000526020600020905b81548152906001019060200180831161070657829003601f168201915b5050505050908060030154908060040154908060050160009054906101000a900460ff16908060060154905087565b6001548110610796576040517f08c379a000000000000000000000000000000000000000000000000000000000815260040161078d9061135e565b60405180910390fd5b60008060008381526020019081526020016000209050806006015442116107f2576040517f08c379a00000000000000000000000000000000000000000000000000000000081526004016107e99061131e565b60405180910390fd5b6064816004015410610839576040517f08c379a0000000000000000000000000000000000000000000000000000000008152600401610830906112fe565b60405180910390fd5b6000816004018190555060008160050160006101000a81548160ff021916908315150217905550600081600301819055505050565b600260009054906101000a900473ffffffffffffffffffffffffffffffffffffffff1673ffffffffffffffffffffffffffffffffffffffff163373ffffffffffffffffffffffffffffffffffffffff16146108fe576040517f08c379a00000000000000000000000000000000000000000000000000000000081526004016108f59061139e565b60405180910390fd5b428111610940576040517f08c379a00000000000000000000000000000000000000000000000000000000081526004016109379061133e565b60405180910390fd5b6040518060e00160405280600154815260200184815260200183815260200160008152602001600081526020016001151581526020018281525060008060015481526020019081526020016000206000820151816000015560208201518160010190805190602001906109b4929190610c48565b5060408201518160020190805190602001906109d1929190610c48565b50606082015181600301556080820151816004015560a08201518160050160006101000a81548160ff02191690831515021790555060c0820151816006015590505060016000815480929190610a269061162f565b9190505550505050565b600260009054906101000a900473ffffffffffffffffffffffffffffffffffffffff1681565b60008083815260200190815260200160002060050160009054906101000a900460ff16610ab8576040517f08c379a0000000000000000000000000000000000000000000000000000000008152600401610aaf906112de565b60405180910390fd5b600080838152602001908152602001600020600601544210610b0f576040517f08c379a0000000000000000000000000000000000000000000000000000000008152600401610b069061137e565b60405180910390fd5b60008111610b52576040517f08c379a0000000000000000000000000000000000000000000000000000000008152600401610b49906112be565b60405180910390fd5b806000808481526020019081526020016000206003016000828254610b77919061151d565b92505081905550806000808481526020019081526020016000206004016000828254610ba3919061151d565b92505081905550813373ffffffffffffffffffffffffffffffffffffffff167fea66f58e474bc09f580000e81f31b334d171db387d0c6098ba47bd897741679b83604051610bf191906113be565b60405180910390a35050565b60035481565b60015481565b6040518060e001604052806000815260200160608152602001606081526020016000815260200160008152602001600015158152602001600081525090565b828054610c54906115fd565b90600052602060002090601f016020900481019282610c765760008555610cbd565b82601f10610c8f57805160ff1916838001178555610cbd565b82800160010185558215610cbd579182015b82811115610cbc578251825591602001919060010190610ca1565b5b509050610cca9190610cce565b5090565b5b80821115610ce7576000816000905550600101610ccf565b5090565b6000610cfe610cf984611487565b611456565b905082815260208101848484011115610d1657600080fd5b610d218482856115bb565b509392505050565b600082601f830112610d3a57600080fd5b8135610d4a848260208601610ceb565b91505092915050565b600081359050610d6281611716565b92915050565b600080600060608486031215610d7d57600080fd5b600084013567ffffffffffffffff811115610d9757600080fd5b610da386828701610d29565b935050602084013567ffffffffffffffff811115610dc057600080fd5b610dcc86828701610d29565b9250506040610ddd86828701610d53565b9150509250925092565b600060208284031215610df957600080fd5b6000610e0784828501610d53565b91505092915050565b60008060408385031215610e2357600080fd5b6000610e3185828601610d53565b9250506020610e4285828601610d53565b9150509250929050565b6000610e5883836111c0565b905092915050565b610e6981611573565b82525050565b6000610e7a826114c7565b610e8481856114ea565b935083602082028501610e96856114b7565b8060005b85811015610ed25784840389528151610eb38582610e4c565b9450610ebe836114dd565b925060208a01995050600181019050610e9a565b50829750879550505050505092915050565b610eed81611585565b82525050565b610efc81611585565b82525050565b6000610f0d826114d2565b610f1781856114fb565b9350610f278185602086016115ca565b610f3081611705565b840191505092915050565b6000610f46826114d2565b610f50818561150c565b9350610f608185602086016115ca565b610f6981611705565b840191505092915050565b6000610f81601d8361150c565b91507f416d6f756e74206d7573742062652067726561746572207468616e20300000006000830152602082019050919050565b6000610fc160128361150c565b91507f50726f6a656374206e6f742061637469766500000000000000000000000000006000830152602082019050919050565b600061100160318361150c565b91507f50726f6a6563742068617320656e6f75676820766f7465732c206e6f7420656c60008301527f696769626c6520666f7220726566756e640000000000000000000000000000006020830152604082019050919050565b600061106760178361150c565b91507f446561646c696e6520686173206e6f74207061737365640000000000000000006000830152602082019050919050565b60006110a760208361150c565b91507f446561646c696e652073686f756c6420626520696e20746865206675747572656000830152602082019050919050565b60006110e760168361150c565b91507f50726f6a65637420646f6573206e6f74206578697374000000000000000000006000830152602082019050919050565b600061112760218361150c565b91507f566f74696e672068617320656e64656420666f7220746869732070726f6a656360008301527f74000000000000000000000000000000000000000000000000000000000000006020830152604082019050919050565b600061118d600e8361150c565b91507f4e6f7420617574686f72697a65640000000000000000000000000000000000006000830152602082019050919050565b600060e0830160008301516111d86000860182611263565b50602083015184820360208601526111f08282610f02565b9150506040830151848203604086015261120a8282610f02565b915050606083015161121f6060860182611263565b5060808301516112326080860182611263565b5060a083015161124560a0860182610ee4565b5060c083015161125860c0860182611263565b508091505092915050565b61126c816115b1565b82525050565b61127b816115b1565b82525050565b60006020820190506112966000830184610e60565b92915050565b600060208201905081810360008301526112b68184610e6f565b905092915050565b600060208201905081810360008301526112d781610f74565b9050919050565b600060208201905081810360008301526112f781610fb4565b9050919050565b6000602082019050818103600083015261131781610ff4565b9050919050565b600060208201905081810360008301526113378161105a565b9050919050565b600060208201905081810360008301526113578161109a565b9050919050565b60006020820190508181036000830152611377816110da565b9050919050565b600060208201905081810360008301526113978161111a565b9050919050565b600060208201905081810360008301526113b781611180565b9050919050565b60006020820190506113d36000830184611272565b92915050565b600060e0820190506113ee600083018a611272565b81810360208301526114008189610f3b565b905081810360408301526114148188610f3b565b90506114236060830187611272565b6114306080830186611272565b61143d60a0830185610ef3565b61144a60c0830184611272565b98975050505050505050565b6000604051905081810181811067ffffffffffffffff8211171561147d5761147c6116d6565b5b8060405250919050565b600067ffffffffffffffff8211156114a2576114a16116d6565b5b601f19601f8301169050602081019050919050565b6000819050602082019050919050565b600081519050919050565b600081519050919050565b6000602082019050919050565b600082825260208201905092915050565b600082825260208201905092915050565b600082825260208201905092915050565b6000611528826115b1565b9150611533836115b1565b9250827fffffffffffffffffffffffffffffffffffffffffffffffffffffffffffffffff0382111561156857611567611678565b5b828201905092915050565b600061157e82611591565b9050919050565b60008115159050919050565b600073ffffffffffffffffffffffffffffffffffffffff82169050919050565b6000819050919050565b82818337600083830152505050565b60005b838110156115e85780820151818401526020810190506115cd565b838111156115f7576000848401525b50505050565b6000600282049050600182168061161557607f821691505b60208210811415611629576116286116a7565b5b50919050565b600061163a826115b1565b91507fffffffffffffffffffffffffffffffffffffffffffffffffffffffffffffffff82141561166d5761166c611678565b5b600182019050919050565b7f4e487b7100000000000000000000000000000000000000000000000000000000600052601160045260246000fd5b7f4e487b7100000000000000000000000000000000000000000000000000000000600052602260045260246000fd5b7f4e487b7100000000000000000000000000000000000000000000000000000000600052604160045260246000fd5b6000601f19601f8301169050919050565b61171f816115b1565b811461172a57600080fd5b5056fea2646970667358221220b6f90536a658b3a350ccbe0142eefb32ba1df701b1ab8701a73238bd4bbd967c64736f6c63430008000033",
  "immutableReferences": {},
  "source": "// SPDX-License-Identifier: MIT\npragma solidity ^0.8.0;\n\ncontract ProjectListing {\n    // Dclaration de l'vnement\n    event Voted(address indexed voter, uint indexed projectId, uint amount);\n    \n    struct Project {\n        uint id;\n        string name;\n        string description;\n        uint totalTokensSold;\n        uint votes;\n        bool isActive;\n        uint deadline;\n    }\n\n    mapping(uint => Project) public projects;\n    uint public nextProjectId;\n    address public owner;\n    uint256 public requiredVotes; // Dclaration de la variable\n\n    // Constructeur avec initialisation de requiredVotes\n    constructor(uint256 _requiredVotes) {\n        owner = msg.sender;\n        requiredVotes = _requiredVotes; // Initialisation dans le constructeur\n    }\n\n    modifier onlyOwner() {\n        require(msg.sender == owner, \"Not authorized\");\n        _;\n    }\n\n    // Ajouter un projet\n    function addProject(string memory _name, string memory _description, uint _deadline) public onlyOwner {\n        require(_deadline > block.timestamp, \"Deadline should be in the future\");\n        projects[nextProjectId] = Project(nextProjectId, _name, _description, 0, 0, true, _deadline);\n        nextProjectId++;\n    }\n\n    function vote(uint _projectId, uint _amount) public {\n        require(projects[_projectId].isActive, \"Project not active\");\n        require(block.timestamp < projects[_projectId].deadline, \"Voting has ended for this project\");\n        require(_amount > 0, \"Amount must be greater than 0\");\n\n        // Assurez-vous que l'utilisateur a suffisamment de tokens pour voter\n        // Ici, vous pouvez ajouter la logique pour transfrer des tokens si vous en avez un contrat de token ERC20\n        // token.transferFrom(msg.sender, address(this), _amount);\n\n        projects[_projectId].totalTokensSold += _amount;\n        projects[_projectId].votes += _amount;\n\n        // vnements pour suivre les votes (facultatif)\n        emit Voted(msg.sender, _projectId, _amount);\n    }\n\n    // Get sorted list of projects after the deadline\n    function getProjectsSortedByVotes() public view returns (Project[] memory) {\n        uint count = nextProjectId;\n        Project[] memory sortedProjects = new Project[](count);\n        for (uint i = 0; i < count; i++) {\n            sortedProjects[i] = projects[i];\n        }\n        // Simple bubble sort for demonstration (not efficient for large lists)\n        for (uint i = 0; i < count; i++) {\n            for (uint j = i + 1; j < count; j++) {\n                if (sortedProjects[i].votes < sortedProjects[j].votes) {\n                    Project memory temp = sortedProjects[i];\n                    sortedProjects[i] = sortedProjects[j];\n                    sortedProjects[j] = temp;\n                }\n            }\n        }\n        return sortedProjects;\n    }\n\n    // Remboursement en cas d'chec\n    function refund(uint256 projectId) public {\n        require(projectId < nextProjectId, \"Project does not exist\");\n        Project storage project = projects[projectId];\n        require(block.timestamp > project.deadline, \"Deadline has not passed\");\n        require(project.votes < 100, \"Project has enough votes, not eligible for refund\");\n\n        // Logique de remboursement\n        project.votes = 0; // Rinitialiser le nombre de votes\n        project.isActive = false; // Dsactive le projet\n        project.totalTokensSold = 0; // Rinitialise les tokens vendus\n        \n    }\n\n\n}\n",
  "sourcePath": "C:\\Users\\Abdoulaye MAIGA\\Desktop\\projects_listing-main\\contracts\\ProjectListing.sol",
  "compiler": {
    "name": "solc",
    "version": "0.8.0+commit.c7dfd78e.Emscripten.clang"
  },
  "schemaVersion": "3.4.16",
  "updatedAt": "2024-11-15T16:18:45.737Z",
  "networkType": "ethereum",
  "devdoc": {
    "kind": "dev",
    "methods": {},
    "version": 1
  },
  "userdoc": {
    "kind": "user",
    "methods": {},
    "version": 1
  }
}