{
  "contractName": "ProjectListing",
  "abi": [
    {
      "inputs": [
        {
          "internalType": "uint256",
          "name": "_requiredVotes",
          "type": "uint256"
        }
      ],
      "stateMutability": "nonpayable",
      "type": "constructor"
    },
    {
      "anonymous": false,
      "inputs": [
        {
          "indexed": true,
          "internalType": "address",
          "name": "voter",
          "type": "address"
        },
        {
          "indexed": true,
          "internalType": "uint256",
          "name": "projectId",
          "type": "uint256"
        },
        {
          "indexed": false,
          "internalType": "uint256",
          "name": "amount",
          "type": "uint256"
        }
      ],
      "name": "Voted",
      "type": "event"
    },
    {
      "inputs": [],
      "name": "nextProjectId",
      "outputs": [
        {
          "internalType": "uint256",
          "name": "",
          "type": "uint256"
        }
      ],
      "stateMutability": "view",
      "type": "function",
      "constant": true
    },
    {
      "inputs": [],
      "name": "owner",
      "outputs": [
        {
          "internalType": "address",
          "name": "",
          "type": "address"
        }
      ],
      "stateMutability": "view",
      "type": "function",
      "constant": true
    },
    {
      "inputs": [
        {
          "internalType": "uint256",
          "name": "",
          "type": "uint256"
        }
      ],
      "name": "projects",
      "outputs": [
        {
          "internalType": "uint256",
          "name": "id",
          "type": "uint256"
        },
        {
          "internalType": "string",
          "name": "name",
          "type": "string"
        },
        {
          "internalType": "string",
          "name": "description",
          "type": "string"
        },
        {
          "internalType": "uint256",
          "name": "totalTokensSold",
          "type": "uint256"
        },
        {
          "internalType": "uint256",
          "name": "votes",
          "type": "uint256"
        },
        {
          "internalType": "bool",
          "name": "isActive",
          "type": "bool"
        },
        {
          "internalType": "uint256",
          "name": "deadline",
          "type": "uint256"
        }
      ],
      "stateMutability": "view",
      "type": "function",
      "constant": true
    },
    {
      "inputs": [],
      "name": "requiredVotes",
      "outputs": [
        {
          "internalType": "uint256",
          "name": "",
          "type": "uint256"
        }
      ],
      "stateMutability": "view",
      "type": "function",
      "constant": true
    },
    {
      "inputs": [
        {
          "internalType": "string",
          "name": "_name",
          "type": "string"
        },
        {
          "internalType": "string",
          "name": "_description",
          "type": "string"
        },
        {
          "internalType": "uint256",
          "name": "_deadline",
          "type": "uint256"
        }
      ],
      "name": "addProject",
      "outputs": [],
      "stateMutability": "nonpayable",
      "type": "function"
    },
    {
      "inputs": [
        {
          "internalType": "uint256",
          "name": "_projectId",
          "type": "uint256"
        },
        {
          "internalType": "uint256",
          "name": "_amount",
          "type": "uint256"
        }
      ],
      "name": "vote",
      "outputs": [],
      "stateMutability": "nonpayable",
      "type": "function"
    },
    {
      "inputs": [],
      "name": "getProjectsSortedByVotes",
      "outputs": [
        {
          "components": [
            {
              "internalType": "uint256",
              "name": "id",
              "type": "uint256"
            },
            {
              "internalType": "string",
              "name": "name",
              "type": "string"
            },
            {
              "internalType": "string",
              "name": "description",
              "type": "string"
            },
            {
              "internalType": "uint256",
              "name": "totalTokensSold",
              "type": "uint256"
            },
            {
              "internalType": "uint256",
              "name": "votes",
              "type": "uint256"
            },
            {
              "internalType": "bool",
              "name": "isActive",
              "type": "bool"
            },
            {
              "internalType": "uint256",
              "name": "deadline",
              "type": "uint256"
            }
          ],
          "internalType": "struct ProjectListing.Project[]",
          "name": "",
          "type": "tuple[]"
        }
      ],
      "stateMutability": "view",
      "type": "function",
      "constant": true
    },
    {
      "inputs": [
        {
          "internalType": "uint256",
          "name": "projectId",
          "type": "uint256"
        }
      ],
      "name": "refund",
      "outputs": [],
      "stateMutability": "nonpayable",
      "type": "function"
    }
  ],
  "bytecode": "0x608060405234801562000010575f80fd5b506040516200190b3803806200190b8339818101604052810190620000369190620000c0565b3360025f6101000a81548173ffffffffffffffffffffffffffffffffffffffff021916908373ffffffffffffffffffffffffffffffffffffffff1602179055508060038190555050620000f0565b5f80fd5b5f819050919050565b6200009c8162000088565b8114620000a7575f80fd5b50565b5f81519050620000ba8162000091565b92915050565b5f60208284031215620000d857620000d762000084565b5b5f620000e784828501620000aa565b91505092915050565b61180d80620000fe5f395ff3fe608060405234801561000f575f80fd5b5060043610610086575f3560e01c80638da5cb5b116100595780638da5cb5b14610116578063b384abef14610134578063bd31a4d814610150578063e935b7b11461016e57610086565b8063011945761461008a578063107046bd146100a8578063278ecde1146100de5780635fd4f758146100fa575b5f80fd5b61009261018c565b60405161009f9190610ce4565b60405180910390f35b6100c260048036038101906100bd9190610d3f565b6104b2565b6040516100d59796959493929190610dd0565b60405180910390f35b6100f860048036038101906100f39190610d3f565b610607565b005b610114600480360381019061010f9190610f77565b61071c565b005b61011e6108c7565b60405161012b919061103e565b60405180910390f35b61014e60048036038101906101499190611057565b6108ec565b005b610158610a87565b6040516101659190611095565b60405180910390f35b610176610a8d565b6040516101839190611095565b60405180910390f35b60605f60015490505f8167ffffffffffffffff8111156101af576101ae610e53565b5b6040519080825280602002602001820160405280156101e857816020015b6101d5610a93565b8152602001906001900390816101cd5790505b5090505f5b828110156103a2575f808281526020019081526020015f206040518060e00160405290815f8201548152602001600182018054610229906110db565b80601f0160208091040260200160405190810160405280929190818152602001828054610255906110db565b80156102a05780601f10610277576101008083540402835291602001916102a0565b820191905f5260205f20905b81548152906001019060200180831161028357829003601f168201915b505050505081526020016002820180546102b9906110db565b80601f01602080910402602001604051908101604052809291908181526020018280546102e5906110db565b80156103305780601f1061030757610100808354040283529160200191610330565b820191905f5260205f20905b81548152906001019060200180831161031357829003601f168201915b505050505081526020016003820154815260200160048201548152602001600582015f9054906101000a900460ff161515151581526020016006820154815250508282815181106103845761038361110b565b5b6020026020010181905250808061039a90611165565b9150506101ed565b505f5b828110156104a9575f6001826103bb91906111ac565b90505b83811015610495578281815181106103d9576103d861110b565b5b6020026020010151608001518383815181106103f8576103f761110b565b5b6020026020010151608001511015610482575f83838151811061041e5761041d61110b565b5b6020026020010151905083828151811061043b5761043a61110b565b5b60200260200101518484815181106104565761045561110b565b5b6020026020010181905250808483815181106104755761047461110b565b5b6020026020010181905250505b808061048d90611165565b9150506103be565b5080806104a190611165565b9150506103a5565b50809250505090565b5f602052805f5260405f205f91509050805f0154908060010180546104d6906110db565b80601f0160208091040260200160405190810160405280929190818152602001828054610502906110db565b801561054d5780601f106105245761010080835404028352916020019161054d565b820191905f5260205f20905b81548152906001019060200180831161053057829003601f168201915b505050505090806002018054610562906110db565b80601f016020809104026020016040519081016040528092919081815260200182805461058e906110db565b80156105d95780601f106105b0576101008083540402835291602001916105d9565b820191905f5260205f20905b8154815290600101906020018083116105bc57829003601f168201915b505050505090806003015490806004015490806005015f9054906101000a900460ff16908060060154905087565b600154811061064b576040517f08c379a000000000000000000000000000000000000000000000000000000000815260040161064290611229565b60405180910390fd5b5f805f8381526020019081526020015f209050806006015442116106a4576040517f08c379a000000000000000000000000000000000000000000000000000000000815260040161069b90611291565b60405180910390fd5b60648160040154106106eb576040517f08c379a00000000000000000000000000000000000000000000000000000000081526004016106e29061131f565b60405180910390fd5b5f81600401819055505f816005015f6101000a81548160ff0219169083151502179055505f81600301819055505050565b60025f9054906101000a900473ffffffffffffffffffffffffffffffffffffffff1673ffffffffffffffffffffffffffffffffffffffff163373ffffffffffffffffffffffffffffffffffffffff16146107ab576040517f08c379a00000000000000000000000000000000000000000000000000000000081526004016107a290611387565b60405180910390fd5b4281116107ed576040517f08c379a00000000000000000000000000000000000000000000000000000000081526004016107e4906113ef565b60405180910390fd5b6040518060e0016040528060015481526020018481526020018381526020015f81526020015f8152602001600115158152602001828152505f8060015481526020019081526020015f205f820151815f0155602082015181600101908161085491906115aa565b50604082015181600201908161086a91906115aa565b50606082015181600301556080820151816004015560a0820151816005015f6101000a81548160ff02191690831515021790555060c0820151816006015590505060015f8154809291906108bd90611165565b9190505550505050565b60025f9054906101000a900473ffffffffffffffffffffffffffffffffffffffff1681565b5f808381526020019081526020015f206005015f9054906101000a900460ff1661094b576040517f08c379a0000000000000000000000000000000000000000000000000000000008152600401610942906116c3565b60405180910390fd5b5f808381526020019081526020015f206006015442106109a0576040517f08c379a000000000000000000000000000000000000000000000000000000000815260040161099790611751565b60405180910390fd5b5f81116109e2576040517f08c379a00000000000000000000000000000000000000000000000000000000081526004016109d9906117b9565b60405180910390fd5b805f808481526020019081526020015f206003015f828254610a0491906111ac565b92505081905550805f808481526020019081526020015f206004015f828254610a2d91906111ac565b92505081905550813373ffffffffffffffffffffffffffffffffffffffff167fea66f58e474bc09f580000e81f31b334d171db387d0c6098ba47bd897741679b83604051610a7b9190611095565b60405180910390a35050565b60035481565b60015481565b6040518060e001604052805f815260200160608152602001606081526020015f81526020015f81526020015f151581526020015f81525090565b5f81519050919050565b5f82825260208201905092915050565b5f819050602082019050919050565b5f819050919050565b610b0881610af6565b82525050565b5f81519050919050565b5f82825260208201905092915050565b5f5b83811015610b45578082015181840152602081019050610b2a565b5f8484015250505050565b5f601f19601f8301169050919050565b5f610b6a82610b0e565b610b748185610b18565b9350610b84818560208601610b28565b610b8d81610b50565b840191505092915050565b5f8115159050919050565b610bac81610b98565b82525050565b5f60e083015f830151610bc75f860182610aff565b5060208301518482036020860152610bdf8282610b60565b91505060408301518482036040860152610bf98282610b60565b9150506060830151610c0e6060860182610aff565b506080830151610c216080860182610aff565b5060a0830151610c3460a0860182610ba3565b5060c0830151610c4760c0860182610aff565b508091505092915050565b5f610c5d8383610bb2565b905092915050565b5f602082019050919050565b5f610c7b82610acd565b610c858185610ad7565b935083602082028501610c9785610ae7565b805f5b85811015610cd25784840389528151610cb38582610c52565b9450610cbe83610c65565b925060208a01995050600181019050610c9a565b50829750879550505050505092915050565b5f6020820190508181035f830152610cfc8184610c71565b905092915050565b5f604051905090565b5f80fd5b5f80fd5b610d1e81610af6565b8114610d28575f80fd5b50565b5f81359050610d3981610d15565b92915050565b5f60208284031215610d5457610d53610d0d565b5b5f610d6184828501610d2b565b91505092915050565b610d7381610af6565b82525050565b5f82825260208201905092915050565b5f610d9382610b0e565b610d9d8185610d79565b9350610dad818560208601610b28565b610db681610b50565b840191505092915050565b610dca81610b98565b82525050565b5f60e082019050610de35f83018a610d6a565b8181036020830152610df58189610d89565b90508181036040830152610e098188610d89565b9050610e186060830187610d6a565b610e256080830186610d6a565b610e3260a0830185610dc1565b610e3f60c0830184610d6a565b98975050505050505050565b5f80fd5b5f80fd5b7f4e487b71000000000000000000000000000000000000000000000000000000005f52604160045260245ffd5b610e8982610b50565b810181811067ffffffffffffffff82111715610ea857610ea7610e53565b5b80604052505050565b5f610eba610d04565b9050610ec68282610e80565b919050565b5f67ffffffffffffffff821115610ee557610ee4610e53565b5b610eee82610b50565b9050602081019050919050565b828183375f83830152505050565b5f610f1b610f1684610ecb565b610eb1565b905082815260208101848484011115610f3757610f36610e4f565b5b610f42848285610efb565b509392505050565b5f82601f830112610f5e57610f5d610e4b565b5b8135610f6e848260208601610f09565b91505092915050565b5f805f60608486031215610f8e57610f8d610d0d565b5b5f84013567ffffffffffffffff811115610fab57610faa610d11565b5b610fb786828701610f4a565b935050602084013567ffffffffffffffff811115610fd857610fd7610d11565b5b610fe486828701610f4a565b9250506040610ff586828701610d2b565b9150509250925092565b5f73ffffffffffffffffffffffffffffffffffffffff82169050919050565b5f61102882610fff565b9050919050565b6110388161101e565b82525050565b5f6020820190506110515f83018461102f565b92915050565b5f806040838503121561106d5761106c610d0d565b5b5f61107a85828601610d2b565b925050602061108b85828601610d2b565b9150509250929050565b5f6020820190506110a85f830184610d6a565b92915050565b7f4e487b71000000000000000000000000000000000000000000000000000000005f52602260045260245ffd5b5f60028204905060018216806110f257607f821691505b602082108103611105576111046110ae565b5b50919050565b7f4e487b71000000000000000000000000000000000000000000000000000000005f52603260045260245ffd5b7f4e487b71000000000000000000000000000000000000000000000000000000005f52601160045260245ffd5b5f61116f82610af6565b91507fffffffffffffffffffffffffffffffffffffffffffffffffffffffffffffffff82036111a1576111a0611138565b5b600182019050919050565b5f6111b682610af6565b91506111c183610af6565b92508282019050808211156111d9576111d8611138565b5b92915050565b7f50726f6a65637420646f6573206e6f74206578697374000000000000000000005f82015250565b5f611213601683610d79565b915061121e826111df565b602082019050919050565b5f6020820190508181035f83015261124081611207565b9050919050565b7f446561646c696e6520686173206e6f74207061737365640000000000000000005f82015250565b5f61127b601783610d79565b915061128682611247565b602082019050919050565b5f6020820190508181035f8301526112a88161126f565b9050919050565b7f50726f6a6563742068617320656e6f75676820766f7465732c206e6f7420656c5f8201527f696769626c6520666f7220726566756e64000000000000000000000000000000602082015250565b5f611309603183610d79565b9150611314826112af565b604082019050919050565b5f6020820190508181035f830152611336816112fd565b9050919050565b7f4e6f7420617574686f72697a65640000000000000000000000000000000000005f82015250565b5f611371600e83610d79565b915061137c8261133d565b602082019050919050565b5f6020820190508181035f83015261139e81611365565b9050919050565b7f446561646c696e652073686f756c6420626520696e20746865206675747572655f82015250565b5f6113d9602083610d79565b91506113e4826113a5565b602082019050919050565b5f6020820190508181035f830152611406816113cd565b9050919050565b5f819050815f5260205f209050919050565b5f6020601f8301049050919050565b5f82821b905092915050565b5f600883026114697fffffffffffffffffffffffffffffffffffffffffffffffffffffffffffffffff8261142e565b611473868361142e565b95508019841693508086168417925050509392505050565b5f819050919050565b5f6114ae6114a96114a484610af6565b61148b565b610af6565b9050919050565b5f819050919050565b6114c783611494565b6114db6114d3826114b5565b84845461143a565b825550505050565b5f90565b6114ef6114e3565b6114fa8184846114be565b505050565b5b8181101561151d576115125f826114e7565b600181019050611500565b5050565b601f821115611562576115338161140d565b61153c8461141f565b8101602085101561154b578190505b61155f6115578561141f565b8301826114ff565b50505b505050565b5f82821c905092915050565b5f6115825f1984600802611567565b1980831691505092915050565b5f61159a8383611573565b9150826002028217905092915050565b6115b382610b0e565b67ffffffffffffffff8111156115cc576115cb610e53565b5b6115d682546110db565b6115e1828285611521565b5f60209050601f831160018114611612575f8415611600578287015190505b61160a858261158f565b865550611671565b601f1984166116208661140d565b5f5b8281101561164757848901518255600182019150602085019450602081019050611622565b868310156116645784890151611660601f891682611573565b8355505b6001600288020188555050505b505050505050565b7f50726f6a656374206e6f742061637469766500000000000000000000000000005f82015250565b5f6116ad601283610d79565b91506116b882611679565b602082019050919050565b5f6020820190508181035f8301526116da816116a1565b9050919050565b7f566f74696e672068617320656e64656420666f7220746869732070726f6a65635f8201527f7400000000000000000000000000000000000000000000000000000000000000602082015250565b5f61173b602183610d79565b9150611746826116e1565b604082019050919050565b5f6020820190508181035f8301526117688161172f565b9050919050565b7f416d6f756e74206d7573742062652067726561746572207468616e20300000005f82015250565b5f6117a3601d83610d79565b91506117ae8261176f565b602082019050919050565b5f6020820190508181035f8301526117d081611797565b905091905056fea2646970667358221220630cf8aa9849c4131b5511bed459df39ba4096333931dc28bd3bb5dda6da34f464736f6c63430008140033",
  "immutableReferences": {},
  "source": "// SPDX-License-Identifier: MIT\r\npragma solidity ^0.8.0;\r\n\r\ncontract ProjectListing {\r\n    // Dclaration de l'vnement\r\n    event Voted(address indexed voter, uint indexed projectId, uint amount);\r\n    \r\n    struct Project {\r\n        uint id;\r\n        string name;\r\n        string description;\r\n        uint totalTokensSold;\r\n        uint votes;\r\n        bool isActive;\r\n        uint deadline;\r\n    }\r\n\r\n    mapping(uint => Project) public projects;\r\n    uint public nextProjectId;\r\n    address public owner;\r\n    uint256 public requiredVotes; // Dclaration de la variable\r\n\r\n    // Constructeur avec initialisation de requiredVotes\r\n    constructor(uint256 _requiredVotes) {\r\n        owner = msg.sender;\r\n        requiredVotes = _requiredVotes; // Initialisation dans le constructeur\r\n    }\r\n\r\n    modifier onlyOwner() {\r\n        require(msg.sender == owner, \"Not authorized\");\r\n        _;\r\n    }\r\n\r\n    // Ajouter un projet\r\n    function addProject(string memory _name, string memory _description, uint _deadline) public onlyOwner {\r\n        require(_deadline > block.timestamp, \"Deadline should be in the future\");\r\n        projects[nextProjectId] = Project(nextProjectId, _name, _description, 0, 0, true, _deadline);\r\n        nextProjectId++;\r\n    }\r\n\r\n    function vote(uint _projectId, uint _amount) public {\r\n        require(projects[_projectId].isActive, \"Project not active\");\r\n        require(block.timestamp < projects[_projectId].deadline, \"Voting has ended for this project\");\r\n        require(_amount > 0, \"Amount must be greater than 0\");\r\n\r\n        // Assurez-vous que l'utilisateur a suffisamment de tokens pour voter\r\n        // Ici, vous pouvez ajouter la logique pour transfrer des tokens si vous en avez un contrat de token ERC20\r\n        // token.transferFrom(msg.sender, address(this), _amount);\r\n\r\n        projects[_projectId].totalTokensSold += _amount;\r\n        projects[_projectId].votes += _amount;\r\n\r\n        // vnements pour suivre les votes (facultatif)\r\n        emit Voted(msg.sender, _projectId, _amount);\r\n    }\r\n\r\n    // Get sorted list of projects after the deadline\r\n    function getProjectsSortedByVotes() public view returns (Project[] memory) {\r\n        uint count = nextProjectId;\r\n        Project[] memory sortedProjects = new Project[](count);\r\n        for (uint i = 0; i < count; i++) {\r\n            sortedProjects[i] = projects[i];\r\n        }\r\n        // Simple bubble sort for demonstration (not efficient for large lists)\r\n        for (uint i = 0; i < count; i++) {\r\n            for (uint j = i + 1; j < count; j++) {\r\n                if (sortedProjects[i].votes < sortedProjects[j].votes) {\r\n                    Project memory temp = sortedProjects[i];\r\n                    sortedProjects[i] = sortedProjects[j];\r\n                    sortedProjects[j] = temp;\r\n                }\r\n            }\r\n        }\r\n        return sortedProjects;\r\n    }\r\n\r\n    // Remboursement en cas d'chec\r\n    function refund(uint256 projectId) public {\r\n        require(projectId < nextProjectId, \"Project does not exist\");\r\n        Project storage project = projects[projectId];\r\n        require(block.timestamp > project.deadline, \"Deadline has not passed\");\r\n        require(project.votes < 100, \"Project has enough votes, not eligible for refund\");\r\n\r\n        // Logique de remboursement\r\n        project.votes = 0; // Rinitialiser le nombre de votes\r\n        project.isActive = false; // Dsactive le projet\r\n        project.totalTokensSold = 0; // Rinitialise les tokens vendus\r\n        \r\n    }\r\n\r\n\r\n}\r\n",
  "sourcePath": "C:\\Users\\Abdoulaye MAIGA\\Project_listing\\contracts\\ProjectListing.sol",
  "compiler": {
    "name": "solc",
    "version": "0.8.20+commit.a1b79de6.Emscripten.clang"
  },
  "schemaVersion": "3.4.16",
  "updatedAt": "2024-11-30T22:00:45.946Z",
  "networkType": "ethereum",
  "devdoc": {
    "kind": "dev",
    "methods": {},
    "version": 1
  },
  "userdoc": {
    "kind": "user",
    "methods": {},
    "version": 1
  }
}